:020000002134A9
:0100030032CA
:01000B0032C2
:0100130032BA
:01001B0032B2
:0100230032AA
:0F002500327FFFDFFE227EFF1126DEFC227D04EC
:0F003400112BDDFC22C2B0112BD2B0112BC2B0A8
:0F004300112BD2B0112BC2B0112BD2B022C2B1EF
:0F005200112BD2B122C2B1112BD2B1112BC2B1DD
:0F006100112BD2B1112BC2B1112BD2B122C294EB
:10007000112BD29422C295112BD29522C296112B0C
:0F008000D29622C297112BD2972274402530F8C6
:0F008F00E58A75F0028475F040A475F04084F6A0
:0F009E0005302230B52630B41A30B30E30B2021E
:1000AD0001A1116E75310030B2FD2211757531014E
:0F00BD0030B3FD22117C75310230B4FD22118366
:1000CC0075310330B5FD227800E53098602474401A
:0F00DC0028F9E7600A9401600A9401600A01F7AD
:1000EB00116E01F9117501F9117C01F911831132AE
:0F00FB000801D52278007C00E53098601211A131
:10010A00744028F9E7953160047C01211A0821031B
:0F011A0022758901D28C75D00075A80075300050
:10012900D2B2D2B3D2B4D2B5D2B722311B20B7FDE5
:1001390030B7FD11321132118A11D311FF1132EC8E
:10014900600711397530002136E530B40A071157B7
:0B01590075300021361150113221409A
:00000001FF
